:03000000020B8E62
:0C0B8E00787FE4F6D8FD758165020BD578
:10002600B3AFB4C7B0D7B5DBB2CAD4C6BCE4C7A7B2
:10003600C0EFBDADC1EAD2BBC8D5BBB9C1BDB0B674
:10004600D4B3C9F9CCE4B2BBD7A1C7E1D6DBD2D1D0
:10005600B9CDF2D6D8C9BDA3BAA3ACA1A3200030AE
:1000660031323334353637383941424344454647D1
:1000760048494A4B4C4D4E4F505152535455565782
:1000860058595A6162636465666768696A6B6C6D24
:100096006E6F707172737475767778797A3A00C07C
:1000A600F9A4B0999282F880908883C6A1868EFFC3
:1000B60000E4A4A4BFA4A6F420FE222222FF02008C
:1000C60010171212FE121A93403F0242827F00005E
:1000D600444444FE4362400828490E482C880000E8
:1000E60000FE424342FF02090909FF090D0901000A
:1000F6000000F8080C0A090808080808FC080000AF
:1001060000007F2121212121212121217F000000C2
:10011600806024242C3425E624342CA624A06000F8
:100126000000003F010101FF0111211F0100000035
:10013600848CB484DA82928D201008844660000094
:1001460020100806FF02040C80422110080C000053
:10015600404040444444C444444446444060400013
:10016600000040605846414040405060C0000000DA
:1001760000F80102F61012121212FA1202FF020021
:1001860000FF00003F11111111113F40807F000058
:1001960080808484848484FC8282838280C0800000
:1001A60000000000000000FF00000000000000004A
:1001B6000000FE12121212FE12121212FF020000AC
:1001C600404849494949497F494949494D6840009C
:1001D600102162068004040404FC040406040000E2
:1001E6000404FE0120202020203F20202030200073
:1001F60000FE0222DA0620A464A43F2466B420008E
:1002060000FF0810088789444629112947C0410084
:1002160080808080808080808080808080C0800018
:1002260000000000000000000000000000000000C8
:10023600000000FE82828282828282FF020000002B
:100246000000007F202020202020207F00000000CA
:100256002022EC0004040484E41C84040406040044
:1002660040201F20444241405F40404143662000F9
:1002760002F2121212FE121212FE121212FB1200D9
:1002860000FF10080403140804030448987F0000C4
:100296000000EE28A8A8A8AFA8A8A8E8AE200000ED
:1002A60040201F0404040404FF04040406040000A0
:1002B60040221408F412D554545F5454F6541000D6
:1002C600084482413F2013FE42260A122B64200076
:1002D6000414D454545454DF54545454F45604005F
:1002E60080601F02020202030202020207000000EF
:1002F60000FC0404FE8460242C35E6342CA4600043
:10030600001F08081F00003F0101FF01213F0100F7
:1003160002020202028242F20E428202020302003C
:1003260000080402010000FF0000000103060000AF
:10033600804020F80708080809FE0808880C08000D
:10034600000000FF40414141417F41414161400081
:1003560008C8B88FE88C48422222121A362240007A
:1003660008180808FF04444242427E4243624000A5
:10037600808080FC848695E4848484FE84C080002A
:100386000040201F0000020C0040807F000000009B
:100396000002F24242424242424242FF0200000052
:1003A60000003F4040404040404040404078000010
:1003B600404244C800080848880808FF08080000AA
:1003C6000040201F204040404148504F40602000E0
:1003D600040404040404FC44444444E444060400C1
:1003E60000804020100E01004080403F00000000C9
:1003F60008080AEAAAAAAAFEAAAAA9F9290C0800C4
:100406004040484B4A4A4A7F4A4A4A4B4860400065
:1004160000F00000000000FF0000000000F00000F7
:10042600007F20202020203F20202020207F000049
:100436000000000080C0C080000000000000000036
:1004460000000000317B7B3100000000000000004E
:100456000000000000000000000000000000000096
:10046600000000462F1F06000000000000000000EC
:100476000000000000000000000000000000000076
:1004860000387C44447C3800000000000000000076
:100496000000000000000000000000000000000056
:1004A6000000000000000000000000000000000046
:1004B600FF0026F8FC04C424FCF800070F0908080E
:1004C6000F0700001018FCFC0000000008080F0FC2
:1004D600080800080C84C4643C18000E0F090808BC
:1004E6000C0C00080C444444FCB800040C08080832
:1004F6000F0700C0E0B098FCFC8000000000080F69
:100506000F08007C7C4444C4C48400040C0808081A
:100516000F0700F0F84C4444C08000070F08080895
:100526000F07000C0C0484C47C3C0000000F0F0075
:10053600000000B8FC444444FCB800070F08080853
:100546000F0700387C444444FCF800000808080CF7
:10055600070300E0F0988C98F0E0000F0F00000011
:100566000F0F0004FCFC4444FCB800080F0F0808F9
:100576000F0700F0F80C04040C180003070C080819
:100586000C060004FCFC040CF8F000080F0F080C25
:1005960007030004FCFC44E40C1C00080F0F0808C9
:1005A6000C0E0004FCFC44E40C1C00080F0F0800B1
:1005B600000000F0F80C84848C980003070C0808EF
:1005C600070F00FCFC404040FCFC000F0F00000041
:1005D6000F0F00000004FCFC0400000000080F0FD1
:1005E60008000000000004FCFC0400070F08080FC8
:1005F60007000004FCFCC0F03C0C00080F0F0001D3
:100606000F0E0004FCFC0400000000080F0F080891
:100616000C0E00FCFC387038FCFC000F0F000000CC
:100626000F0F00FCFC3870E0FCFC000F0F00000010
:100636000F0F00F0F80C040CF8F00003070C080C80
:1006460007030004FCFC44447C3800080F0F080034
:10065600000000F8FC040404FCF800070F080E3C38
:100666003F270004FCFC44C4FC3800080F0F0000C0
:100676000F0F00183C6444C49C1800060E080808B6
:100686000F0700001C0CFCFC0C1C000000080F0FE0
:10069600080000FCFC000000FCFC00070F0808082E
:1006A6000F0700FCFC000000FCFC000103060C0622
:1006B600030100FCFC008000FCFC00030F0E030E8F
:1006C6000F03000C3CF0C0F03C0C000C0F030003C1
:1006D6000F0C00003C7CC0C07C3C000000080F0FE3
:1006E6000800001C0C84C4643C1C000E0F0908089A
:1006F6000C0E0000A0A0A0E0C00000070F0808072D
:100706000F080004FCFC2060C08000080F070808E2
:100716000F0700C0E0202020604000070F080808EF
:100726000C040080C06024FCFC0000070F080807CA
:100736000F0800C0E0A0A0A0E0C000070F0808084E
:100746000C040040F8FC440C180000080F0F0800C9
:10075600000000C0E02020C0E02000276F48487F4E
:100766003F000004FCFC4020E0C000080F0F000022
:100776000F0F00000020ECEC0000000000080F0F37
:100786000800000000000020ECEC00003070404043
:100796007F3F0004FCFC80C0602000080F0F0103AF
:1007A6000E0C00000004FCFC0000000000080F0F07
:1007B600080000E0E060C060E0C0000F0F000F001E
:1007C6000F0F0020E0C02020E0C000000F0F000047
:1007D6000F0F00C0E0202020E0C000070F08080827
:1007E6000F070020E0C02020E0C000407F7F4808BF
:1007F6000F0700C0E02020C0E02000070F08487F58
:100806007F400020E0C0602060C000080F0F080095
:1008160000000040E0A02020604000040C09090B05
:100826000E04002020F8FC202000000000070F081E
:100836000C0400E0E00000E0E00000070F080807F5
:100846000F080000E0E00000E0E0000003070C0CE9
:10085600070300E0E0000000E0E000070F0C070CD3
:100866000F07002060C080C0602000080C07030747
:100876000C0800E0E0000000E0E000474F48486850
:100886003F1F00606020A0E06020000C0E0B0908EE
:100896000C0C0000000030300000000000000606CE
:1008A600000000FF0065FEFDFBF7EEDEBE7EEDDD1F
:0A08B600BD7DEBDBBB7BE7D7B77716
:1011DA0060380002040A111111110A04040A1B15CD
:1011EA00151B0A04040E1F1F1F1F0E0400040E15F0
:1011FA000404040000040404150E04000004081F7B
:10120A00080400000004021F020400004200000259
:01121A00FCD7
:1013EE00EF1FAA0670011E4A60107C137D88ED1D4A
:0A13FE00AA0470011C4A60E880F4A4
:0114080022C1
:06125C008F118A128B13B2
:10126200C28EED14FBC3EB648094804025AE12AFB6
:10127200137C007D0A120918E5112B2425F8A60516
:10128200AE12AF137C007D0A1209188E128F131B47
:0412920080D3D28EA5
:011296002235
:100FC7000534533407C293C2927580FFD293D292ED
:100FD700C293C2917F7FA834EF08800103D8FDF543
:100FE70080D293D291C293C2927F80A834EF0880B7
:100FF7000103D8FD552D601074252534F8E69000BF
:10100700A593547FF580800C74252534F8E690006D
:08101700A593F580D293D2925B
:01101F0022AE
:03001B000213D0FD
:1013D000C0E0C0F0C083C082C0D075D008120FC773
:0E13E000121347D0D0D082D083D0F0D0E032AC
:10145800538EBF53890F758BA4758DFFC28FD28EA3
:03146800D2AB22E2
:07148F001214968E80D2C5F5
:0614960000007F42DFFEB2
:01149C00222D
:03146B0012149DBB
:0E146E0000007F037E1A7DDFDDFEDEFCDFFA6C
:01147C00224D
:0514E800007F19DFFE8A
:0114ED0022DC
:0C14C600C2978F80D2961214E8C29622C2
:0C14D200D2978F80D2961214E8C29622A6
:04130D00AC03AB077B
:10131100EDC39440500AED2440FED295C29480065C
:10132100AE05C295D294C28EAF061214C6EB24B894
:10133100FF1214C6300B07C374FF9CFF8002AF0479
:051341001214D2D28E4F
:011346002284
:040E3A00AA05AE0750
:100E3E007F3F1214C67FC01214C6AF067511008F05
:100E4E0012EAFFC3E5129FE51194005023E4F583E7
:100E5E00F582AF12AD82C20BE4FB12130DA3E58235
:100E6E006480458370EC0512E51270D5051180D1B2
:100E7E00751100751205900064E5121512AE117011
:100E8E000215114E600FE5821582AE837002158336
:050E9E004E60E680F14A
:010EA300222C
:060C1A008F168D178B18E8
:100C2000E4F519AA16E5162402FFE433FEEAC39F91
:100C3000EE6480F8748098504EA917E5172408FFD9
:100C4000E433FEE9C39FEE6480F8748098502FAFC0
:100C500019051975F010E518A424B9F582E5F034EA
:100C600004F583E5822FF582E43583F583E493FB75
:100C7000AF02AD01A20A920B12130D0980BDC296FC
:070C8000C294C2950A809E98
:010C8700224A
:060C88008F5C8D5D8B5EA8
:100C8E00E4F55FAA5CE55C2402FFE433FEEAC39F51
:100C9E00EE6480F8748098504EA95DE55D2410FFD7
:100CAE00E433FEE9C39FEE6480F8748098502FAF52
:100CBE005F055F75F020E55EA424B6F582E5F0349D
:100CCE0000F583E5822FF582E43583F583E493FB0B
:100CDE00AF02AD01A20C920B12130D0980BDC2968C
:070CEE00C294C2950A809E2A
:010CF50022DC
:0A0EA4008F468D478B488A49894A22
:100EAE00E4F54D85464BE5462402FFE433FEC3E5EB
:100EBE004B9FEE6480F8748098504485474CE5470C
:100ECE002408FFE433FEC3E54C9FEE6480F8748083
:100EDE00985022AB48AA49A94AAF4D054D8F82754D
:100EEE0083001208D9FBA20D920BAD4CAF4B12131F
:0F0EFE000D054C80C9C296C294C295054B80A7C2
:010F0D0022C1
:1010C8008F118D128A138B14AF151515EFD3940059
:1010D8004034E51575F008A42512FDC005AE13AF20
:1010E800147C007D0A120918AB05A209920AD005E2
:1010F800AF11120C1AAE13AF147C007D0A12091836
:071108008E138F1480C22238
:0A0AE7008F4E8D4F8B508A518952BB
:100AF100E4F553AB50AA51A9528553827583001274
:100B010008D97003020B8DE4F5549004B6E493FB0D
:100B1100740193FA740293F9855482758300120863
:100B2100D9FF6063AB50AA51A952855382758300E6
:100B31001208D96F704BE5542401FFE433FE900491
:100B4100B6E493FB740193FA740293F98F828E8356
:100B51001208D9FFE553F582758300A3AB50AA5162
:100B6100A9521208D9B50719E55375F008A4254F04
:100B7100FDE554C313FBA20E920CAF4E120C8880FC
:0C0B8100060554055480830553020AF455
:010B8D002245
:0A0CF6008F558D568B578A58895987
:100D0000E4F55AAB57AA58A959855A82758300123F
:100D100008D9604DE4F55B9008A9E493FB74019356
:100D2000FA740293F9855B827583001208D9FF601B
:100D30002CAB57AA58A959855A827583001208D935
:100D4000B50716E55A75F008A42556FDA20F920ABC
:100D5000AB5BAF55120C1A8004055B80BA055A8054
:010D6000A2F0
:010D6100226F
:030023000214B90B
:0D14B900309802C298309904C299C20532E1
:10147D002005FDEF30D004D29B8002C29BD205F532
:02148D009922A2
:1013AB008B608A618962AB60AA61A9621208C06016
:1013BB00130562E5627002056114F91208C0FF1291
:0513CB00147D80E22208
:0E149D00AE07C28EC2CD12148FC2C5D28E22EF
:0E14AB00AE07C28ED2CD12148FC2C5D28E22D1
:08121C008B638A648965AE074B
:10122400EE7005ED24808006BE0107ED24C0FF1298
:10123400149DE4900046F0AB63AA64A9659000464F
:10124400E0F5827583001208D9FF600B1214AB908D
:071254000046E004F080E019
:01125B002270
:100F6D008F118D128B13E513604FE5117006E5128D
:100F7D0024808009E511B4010DE51224C0AE1315CE
:100F8D00132EFF12149DE47B0AFAF9F8AF17AE1673
:100F9D00AD15AC14121154EB2430FF1214ABAF1776
:100FAD00AE16AD15AC14E47B0AFAF9F81211548F94
:0A0FBD00178E168D158C1480AD22DE
:10140900AE07AC03EE7005ED24808006BE0107ED42
:0B14190024C0FF12149DAF040214ABAE
:10129700E4FDC2C57F3812146B7F0C12146B7F06F6
:1012A70012149D12146E7F0112149D12146E7F404A
:1012B70012149D12146EFD74022DF582E43400F5AC
:0A12C70083E0FF1214AB0DBD38EDFB
:0112D10022FA
:100D62009000457410F075A0F0E5A064F0604AE5CB
:100D72003DB40728E4900044F0900044E0FFC3949F
:100D8200045019EF9008AC93F5A065A0600690009E
:100D920045E5A0F0900044E004F080DD053DC390FD
:100DA200003CE0953D90003BE0940050197405F042
:100DB200A374DCF0E4F53D800DE4F53D90003B7456
:0B0DC20005F0A374DCF0900045E0FF9A
:010DCD002203
:1012D200120D62900043EFF06410602EE490004221
:1012E200F0900042E0FFC39410501FEF9008B093BB
:1012F200FF900043E0FEEFB50608900042E0900048
:0A1302003DF0900042E004F080D7B7
:01130C0022BE
:100003001212D2E53DB407091212D290003DE0FF6F
:04001300227F102216
:10110F0030083BD3E53F64809480500B90003A74D5
:10111F0003F0E4F53F801430060890003A7401F0B4
:10112F00800920060690003A7402F020040730026E
:10113F0004153FC20230040C200209D20222900093
:05114F003A7403F022D8
:0A14DE00A2109206851F3FD20822DB
:100DCE00D2B2E4F531F532D20012107820011A12A7
:100DDE001496121496800A2001F2D2B2121496C200
:100DEE00B2121496120F0E80EEC200121078D3902B
:100DFE000001E09400900000E094004023D2B21273
:100E0E001496121496C2B2121496121496120F0E53
:100E1E00900001E024FFF0900000E034FFF080CE5F
:0C0E2E00E4F531F532C203F52EF52F2259
:10137D007E007C057D5A1209068E2E8F2FD3E52F08
:10138D009532E52E95314004C200D203C3E52F9569
:0E139D0032E52E95315004D200D203021078B2
:10134700AF330533EFD39401402BD2B2300323C21E
:10135700B230000AE5321532700C153180080532BB
:10136700E53270020531E532B52F07E531B52E02BA
:06137700C203E4F533227D
:10119800C211EF24FE601114601F14602324037031
:1011A8002EE53E30E20C8005E53E30E1055330FE89
:1011B800801D433001D2118016E53E30E00C8005D9
:1011C800E53E30E1055330FD8005433002D211A2DF
:0111D8001105
:0111D90022F3
:081020008F1D8E1C8D1B8C1A24
:10102800C212E543D394074044751E077435251E44
:10103800F8E4F67B0AFAF9F8AF1DAE1CAD1BAC1A42
:10104800121154AF037435251EF8A607AF1DAE1C48
:10105800AD1BAC1AE47B0AFAF9F81211548F1D8EF5
:0F1068001C8D1B8C1AD51EC4D212E4F543A212A4
:011077002256
:10143F00300715E543C39408500E74352543F8E67D
:09144F00FF12119850020543221E
:101424007543097F017E007D007C00121020E54396
:0B143400C39408500512143F80F422FE
:100F0E00C2B4E4F541F542121496D2B49000427484
:100F1E000AF0C2B5121496E54225E0F542E54133DA
:100F2E00F54130B303434201D2B5900042E014F0D4
:100F3E00E0D36480948050DAE52465427004E523A2
:100F4E006541601A854123854224AF24EF13135463
:0E0F5E003FF53EE524139201E524A2E1920442
:010F6C002262
:1010780090003AE025E025E0FFE530C454F04FFF4A
:10108800A200E4334FFD90003EE06D602DE4FBC20A
:10109800B574807E00A803088006CEA2E713CE139D
:1010A800D8F8FFEDF582EF558224FF92B7D2B50B41
:0F10B800BB08DCC2B6121496D2B690003EEDF023
:0110C7002206
:100A3B007594FFE4F593F592F591F596F59575B2EE
:100A4B00FFF5B1F5B4F5B3F5CAF5C9F5CCF5CBF5B2
:100A5B00E2F5E11212977D08E4FF120E3AE4F58EEF
:100A6B0012145875985075D7E875D6FF438E1443FA
:100A7B008E01D2ACD2AF432D1090003A7403F075B7
:100A8B00300F121297E4751715751603F515F5143B
:100A9B007B057D077F01120F6D120F0E120DCEE439
:020AAB00F53321
:100AAD00120003EF64106010EFFB7A00751503C29E
:100ABD00097D487F041210C8AF100510EFFB7A00B6
:100ACD00751503C2097D487F061210C8E510FB7A23
:080ADD00007D047F0412125C8D
:020AE50080C6C9
:100B9A00020A3BE493A3F8E493A34003F68001F22C
:100BAA0008DFF48029E493A3F85407240CC8C3335C
:100BBA00C4540F4420C8834004F456800146F6DF2B
:100BCA00E4800B01020408102040809011DAE47ED0
:100BDA00019360BCA3FF543F30E509541FFEE49320
:100BEA00A360010ECF54C025E060A840B8E493A3E7
:100BFA00FAE493A3F8E493A3C8C582C8CAC583CA12
:100C0A00F0A3C8C582C8CAC583CADFE9DEE780BEC9
:01121B0000D2
:1008C000BB010689828A83E0225002E722BBFE0236
:0908D000E32289828A83E4932269
:1008D900BB010CE58229F582E5833AF583E02250D4
:1008E90006E92582F8E622BBFE06E92582F8E2221E
:0D08F900E58229F582E5833AF583E4932238
:10090600EF8DF0A4A8F0CF8CF0A428CE8DF0A42E05
:02091600FE22BF
:10091800BC000BBE0029EF8DF084FFADF022E4CCC3
:10092800F875F008EF2FFFEE33FEEC33FCEE9DEC8C
:10093800984005FCEE9DFE0FD5F0E9E4CEFD22EDD2
:10094800F8F5F0EE8420D21CFEADF075F008EF2F1C
:10095800FFED33FD4007985006D5F0F222C398FD0D
:050968000FD5F0EA22AA
:10115400C2D5E830E70FB2D5E4C39BFBE49AFAE4C6
:1011640099F9E498F8EC30E717B2D512118A12090C
:10117400A9E4C39BFBE49AFAE499F9E498F88003A0
:101184001209A930D50DE4C39FFFE49EFEE49DFD42
:04119400E49CFC22B9
:10096D0075F008758200EF2FFFEE33FECD33CDCC41
:10097D0033CCC58233C5829BED9AEC99E5829840C4
:10098D000CF582EE9BFEED9AFDEC99FC0FD5F0D6A1
:10099D00E4CEFBE4CDFAE4CCF9A88222B800C1B9CB
:1009AD000059BA002DEC8BF084CFCECDFCE5F0CB09
:1009BD00F97818EF2FFFEE33FEED33FDEC33FCEB42
:1009CD0033FB10D703994004EB99FB0FD8E5E4F9FD
:1009DD00FA227818EF2FFFEE33FEED33FDEC33FCEA
:1009ED00C933C910D7059BE99A4007EC9BFCE99ADE
:1009FD00F90FD8E0E4C9FAE4CCFB2275F010EF2F23
:100A0D00FFEE33FEED33FDCC33CCC833C810D70722
:100A1D009BEC9AE899400AED9BFDEC9AFCE899F85D
:0E0A2D000FD5F0DAE4CDFBE4CCFAE4C8F922F0
:00000001FF
